{
  "contracts/TodoList.sol": {
    "TodoList": {
      "abi": [
        {
          "inputs": [],
          "stateMutability": "nonpayable",
          "type": "constructor"
        },
        {
          "inputs": [
            {
              "internalType": "address",
              "name": "owner",
              "type": "address"
            }
          ],
          "name": "OwnableInvalidOwner",
          "type": "error"
        },
        {
          "inputs": [
            {
              "internalType": "address",
              "name": "account",
              "type": "address"
            }
          ],
          "name": "OwnableUnauthorizedAccount",
          "type": "error"
        },
        {
          "anonymous": false,
          "inputs": [
            {
              "indexed": false,
              "internalType": "bytes32",
              "name": "todo",
              "type": "bytes32"
            }
          ],
          "name": "CreateTodo",
          "type": "event"
        },
        {
          "anonymous": false,
          "inputs": [],
          "name": "DeleteTodo",
          "type": "event"
        },
        {
          "anonymous": false,
          "inputs": [
            {
              "indexed": true,
              "internalType": "address",
              "name": "previousOwner",
              "type": "address"
            },
            {
              "indexed": true,
              "internalType": "address",
              "name": "newOwner",
              "type": "address"
            }
          ],
          "name": "OwnershipTransferred",
          "type": "event"
        },
        {
          "anonymous": false,
          "inputs": [
            {
              "indexed": false,
              "internalType": "bytes32",
              "name": "todo",
              "type": "bytes32"
            }
          ],
          "name": "UpdateTodo",
          "type": "event"
        },
        {
          "inputs": [],
          "name": "FEE",
          "outputs": [
            {
              "internalType": "uint256",
              "name": "",
              "type": "uint256"
            }
          ],
          "stateMutability": "view",
          "type": "function"
        },
        {
          "inputs": [
            {
              "internalType": "string",
              "name": "todoDefinition",
              "type": "string"
            }
          ],
          "name": "createTodo",
          "outputs": [],
          "stateMutability": "payable",
          "type": "function"
        },
        {
          "inputs": [
            {
              "internalType": "uint256",
              "name": "index",
              "type": "uint256"
            }
          ],
          "name": "deleteTodo",
          "outputs": [],
          "stateMutability": "nonpayable",
          "type": "function"
        },
        {
          "inputs": [],
          "name": "getNumOfTodos",
          "outputs": [
            {
              "internalType": "uint256",
              "name": "",
              "type": "uint256"
            }
          ],
          "stateMutability": "view",
          "type": "function"
        },
        {
          "inputs": [],
          "name": "owner",
          "outputs": [
            {
              "internalType": "address",
              "name": "",
              "type": "address"
            }
          ],
          "stateMutability": "view",
          "type": "function"
        },
        {
          "inputs": [],
          "name": "renounceOwnership",
          "outputs": [],
          "stateMutability": "nonpayable",
          "type": "function"
        },
        {
          "inputs": [
            {
              "internalType": "uint256",
              "name": "",
              "type": "uint256"
            }
          ],
          "name": "todoList",
          "outputs": [
            {
              "internalType": "string",
              "name": "definition",
              "type": "string"
            },
            {
              "internalType": "enum TodoList.Status",
              "name": "status",
              "type": "uint8"
            },
            {
              "internalType": "uint256",
              "name": "createdAt",
              "type": "uint256"
            }
          ],
          "stateMutability": "view",
          "type": "function"
        },
        {
          "inputs": [
            {
              "internalType": "address",
              "name": "newOwner",
              "type": "address"
            }
          ],
          "name": "transferOwnership",
          "outputs": [],
          "stateMutability": "nonpayable",
          "type": "function"
        },
        {
          "inputs": [
            {
              "internalType": "uint256",
              "name": "index",
              "type": "uint256"
            },
            {
              "internalType": "enum TodoList.Status",
              "name": "status",
              "type": "uint8"
            },
            {
              "internalType": "string",
              "name": "todoDefinition",
              "type": "string"
            }
          ],
          "name": "updateTodo",
          "outputs": [],
          "stateMutability": "nonpayable",
          "type": "function"
        }
      ],
      "evm": {
        "bytecode": {
          "linkReferences": {},
          "object": "608060405234801561001057600080fd5b5033600073ffffffffffffffffffffffffffffffffffffffff168173ffffffffffffffffffffffffffffffffffffffff16036100845760006040517f1e4fbdf700000000000000000000000000000000000000000000000000000000815260040161007b919061019e565b60405180910390fd5b6100938161009960201b60201c565b506101b9565b60008060009054906101000a900473ffffffffffffffffffffffffffffffffffffffff169050816000806101000a81548173ffffffffffffffffffffffffffffffffffffffff021916908373ffffffffffffffffffffffffffffffffffffffff1602179055508173ffffffffffffffffffffffffffffffffffffffff168173ffffffffffffffffffffffffffffffffffffffff167f8be0079c531659141344cd1fd0a4f28419497f9722a3daafe3b4186f6b6457e060405160405180910390a35050565b600073ffffffffffffffffffffffffffffffffffffffff82169050919050565b60006101888261015d565b9050919050565b6101988161017d565b82525050565b60006020820190506101b3600083018461018f565b92915050565b611568806101c86000396000f3fe6080604052600436106100865760003560e01c8063715018a611610059578063715018a6146101475780638da5cb5b1461015e578063c57981b514610189578063e34f1221146101b4578063f2fde38b146101d057610086565b806309d9afea1461008b57806358c2d469146100b457806366f2be94146100f35780636e3c67381461011e575b600080fd5b34801561009757600080fd5b506100b260048036038101906100ad9190610aa9565b6101f9565b005b3480156100c057600080fd5b506100db60048036038101906100d69190610b1d565b6102e8565b6040516100ea93929190610c60565b60405180910390f35b3480156100ff57600080fd5b506101086103b7565b6040516101159190610c9e565b60405180910390f35b34801561012a57600080fd5b5061014560048036038101906101409190610b1d565b6103c4565b005b34801561015357600080fd5b5061015c6105b8565b005b34801561016a57600080fd5b506101736105cc565b6040516101809190610cfa565b60405180910390f35b34801561019557600080fd5b5061019e6105f5565b6040516101ab9190610c9e565b60405180910390f35b6101ce60048036038101906101c99190610d15565b610600565b005b3480156101dc57600080fd5b506101f760048036038101906101f29190610d8e565b6107a9565b005b61020161082f565b826001858154811061021657610215610dbb565b5b906000526020600020906003020160010160006101000a81548160ff0219169083600281111561024957610248610bda565b5b021790555081816001868154811061026457610263610dbb565b5b90600052602060002090600302016000019182610282929190611030565b507f0a89d447b03c57ef39d59d3dca3478ba51528310fc6b614140ad428e90498fd382826040516020016102b792919061113f565b604051602081830303815290604052805190602001206040516102da9190611171565b60405180910390a150505050565b600181815481106102f857600080fd5b906000526020600020906003020160009150905080600001805461031b90610e53565b80601f016020809104026020016040519081016040528092919081815260200182805461034790610e53565b80156103945780601f1061036957610100808354040283529160200191610394565b820191906000526020600020905b81548152906001019060200180831161037757829003601f168201915b5050505050908060010160009054906101000a900460ff16908060020154905083565b6000600180549050905090565b6103cc61082f565b60018080805490506103de91906111bb565b815481106103ef576103ee610dbb565b5b90600052602060002090600302016001828154811061041157610410610dbb565b5b9060005260206000209060030201600082018160000190816104339190611205565b506001820160009054906101000a900460ff168160010160006101000a81548160ff0219169083600281111561046c5761046b610bda565b5b02179055506002820154816002015590505060018054806104905761048f6112ed565b5b6001900381819060005260206000209060030201600080820160006104b59190610982565b6001820160006101000a81549060ff021916905560028201600090555050905560003373ffffffffffffffffffffffffffffffffffffffff16662386f26fc100006040516105029061134d565b60006040518083038185875af1925050503d806000811461053f576040519150601f19603f3d011682016040523d82523d6000602084013e610544565b606091505b5050905080610588576040517f08c379a000000000000000000000000000000000000000000000000000000000815260040161057f906113ae565b60405180910390fd5b7f67aa58abc396f7c2a8ea6ac09860dcde0d063a13f87aa70950229a0698ccf2de60405160405180910390a15050565b6105c061082f565b6105ca60006108b6565b565b60008060009054906101000a900473ffffffffffffffffffffffffffffffffffffffff16905090565b662386f26fc1000081565b61060861082f565b662386f26fc100003414610651576040517f08c379a000000000000000000000000000000000000000000000000000000000815260040161064890611440565b60405180910390fd5b6000604051806060016040528084848080601f016020809104026020016040519081016040528093929190818152602001838380828437600081840152601f19601f820116905080830192505050505050508152602001600060028111156106bc576106bb610bda565b5b8152602001428152509050600181908060018154018082558091505060019003906000526020600020906003020160009091909190915060008201518160000190816107089190611460565b5060208201518160010160006101000a81548160ff0219169083600281111561073457610733610bda565b5b02179055506040820151816002015550507fe5cbfb05332d78282dfc7fa4461c8bf821879aa086deef210c22ac365472a5ae838360405160200161077992919061113f565b6040516020818303038152906040528051906020012060405161079c9190611171565b60405180910390a1505050565b6107b161082f565b600073ffffffffffffffffffffffffffffffffffffffff168173ffffffffffffffffffffffffffffffffffffffff16036108235760006040517f1e4fbdf700000000000000000000000000000000000000000000000000000000815260040161081a9190610cfa565b60405180910390fd5b61082c816108b6565b50565b61083761097a565b73ffffffffffffffffffffffffffffffffffffffff166108556105cc565b73ffffffffffffffffffffffffffffffffffffffff16146108b45761087861097a565b6040517f118cdaa70000000000000000000000000000000000000000000000000000000081526004016108ab9190610cfa565b60405180910390fd5b565b60008060009054906101000a900473ffffffffffffffffffffffffffffffffffffffff169050816000806101000a81548173ffffffffffffffffffffffffffffffffffffffff021916908373ffffffffffffffffffffffffffffffffffffffff1602179055508173ffffffffffffffffffffffffffffffffffffffff168173ffffffffffffffffffffffffffffffffffffffff167f8be0079c531659141344cd1fd0a4f28419497f9722a3daafe3b4186f6b6457e060405160405180910390a35050565b600033905090565b50805461098e90610e53565b6000825580601f106109a057506109bf565b601f0160209004906000526020600020908101906109be91906109c2565b5b50565b5b808211156109db5760008160009055506001016109c3565b5090565b600080fd5b600080fd5b6000819050919050565b6109fc816109e9565b8114610a0757600080fd5b50565b600081359050610a19816109f3565b92915050565b60038110610a2c57600080fd5b50565b600081359050610a3e81610a1f565b92915050565b600080fd5b600080fd5b600080fd5b60008083601f840112610a6957610a68610a44565b5b8235905067ffffffffffffffff811115610a8657610a85610a49565b5b602083019150836001820283011115610aa257610aa1610a4e565b5b9250929050565b60008060008060608587031215610ac357610ac26109df565b5b6000610ad187828801610a0a565b9450506020610ae287828801610a2f565b935050604085013567ffffffffffffffff811115610b0357610b026109e4565b5b610b0f87828801610a53565b925092505092959194509250565b600060208284031215610b3357610b326109df565b5b6000610b4184828501610a0a565b91505092915050565b600081519050919050565b600082825260208201905092915050565b60005b83811015610b84578082015181840152602081019050610b69565b60008484015250505050565b6000601f19601f8301169050919050565b6000610bac82610b4a565b610bb68185610b55565b9350610bc6818560208601610b66565b610bcf81610b90565b840191505092915050565b7f4e487b7100000000000000000000000000000000000000000000000000000000600052602160045260246000fd5b60038110610c1a57610c19610bda565b5b50565b6000819050610c2b82610c09565b919050565b6000610c3b82610c1d565b9050919050565b610c4b81610c30565b82525050565b610c5a816109e9565b82525050565b60006060820190508181036000830152610c7a8186610ba1565b9050610c896020830185610c42565b610c966040830184610c51565b949350505050565b6000602082019050610cb36000830184610c51565b92915050565b600073ffffffffffffffffffffffffffffffffffffffff82169050919050565b6000610ce482610cb9565b9050919050565b610cf481610cd9565b82525050565b6000602082019050610d0f6000830184610ceb565b92915050565b60008060208385031215610d2c57610d2b6109df565b5b600083013567ffffffffffffffff811115610d4a57610d496109e4565b5b610d5685828601610a53565b92509250509250929050565b610d6b81610cd9565b8114610d7657600080fd5b50565b600081359050610d8881610d62565b92915050565b600060208284031215610da457610da36109df565b5b6000610db284828501610d79565b91505092915050565b7f4e487b7100000000000000000000000000000000000000000000000000000000600052603260045260246000fd5b600082905092915050565b7f4e487b7100000000000000000000000000000000000000000000000000000000600052604160045260246000fd5b7f4e487b7100000000000000000000000000000000000000000000000000000000600052602260045260246000fd5b60006002820490506001821680610e6b57607f821691505b602082108103610e7e57610e7d610e24565b5b50919050565b60008190508160005260206000209050919050565b60006020601f8301049050919050565b600082821b905092915050565b600060088302610ee67fffffffffffffffffffffffffffffffffffffffffffffffffffffffffffffffff82610ea9565b610ef08683610ea9565b95508019841693508086168417925050509392505050565b6000819050919050565b6000610f2d610f28610f23846109e9565b610f08565b6109e9565b9050919050565b6000819050919050565b610f4783610f12565b610f5b610f5382610f34565b848454610eb6565b825550505050565b600090565b610f70610f63565b610f7b818484610f3e565b505050565b5b81811015610f9f57610f94600082610f68565b600181019050610f81565b5050565b601f821115610fe457610fb581610e84565b610fbe84610e99565b81016020851015610fcd578190505b610fe1610fd985610e99565b830182610f80565b50505b505050565b600082821c905092915050565b600061100760001984600802610fe9565b1980831691505092915050565b60006110208383610ff6565b9150826002028217905092915050565b61103a8383610dea565b67ffffffffffffffff81111561105357611052610df5565b5b61105d8254610e53565b611068828285610fa3565b6000601f8311600181146110975760008415611085578287013590505b61108f8582611014565b8655506110f7565b601f1984166110a586610e84565b60005b828110156110cd578489013582556001820191506020850194506020810190506110a8565b868310156110ea57848901356110e6601f891682610ff6565b8355505b6001600288020188555050505b50505050505050565b600081905092915050565b82818337600083830152505050565b60006111268385611100565b935061113383858461110b565b82840190509392505050565b600061114c82848661111a565b91508190509392505050565b6000819050919050565b61116b81611158565b82525050565b60006020820190506111866000830184611162565b92915050565b7f4e487b7100000000000000000000000000000000000000000000000000000000600052601160045260246000fd5b60006111c6826109e9565b91506111d1836109e9565b92508282039050818111156111e9576111e861118c565b5b92915050565b6000815490506111fe81610e53565b9050919050565b8181036112135750506112eb565b61121c826111ef565b67ffffffffffffffff81111561123557611234610df5565b5b61123f8254610e53565b61124a828285610fa3565b6000601f8311600181146112795760008415611267578287015490505b6112718582611014565b8655506112e4565b601f19841661128787610e84565b965061129286610e84565b60005b828110156112ba57848901548255600182019150600185019450602081019050611295565b868310156112d757848901546112d3601f891682610ff6565b8355505b6001600288020188555050505b5050505050505b565b7f4e487b7100000000000000000000000000000000000000000000000000000000600052603160045260246000fd5b600081905092915050565b50565b600061133760008361131c565b915061134282611327565b600082019050919050565b60006113588261132a565b9150819050919050565b7f526566756e64206661696c656400000000000000000000000000000000000000600082015250565b6000611398600d83610b55565b91506113a382611362565b602082019050919050565b600060208201905081810360008301526113c78161138b565b9050919050565b7f4d7573742073656e6420302e30312045544820746f206372656174652061205460008201527f6f646f0000000000000000000000000000000000000000000000000000000000602082015250565b600061142a602383610b55565b9150611435826113ce565b604082019050919050565b600060208201905081810360008301526114598161141d565b9050919050565b61146982610b4a565b67ffffffffffffffff81111561148257611481610df5565b5b61148c8254610e53565b611497828285610fa3565b600060209050601f8311600181146114ca57600084156114b8578287015190505b6114c28582611014565b86555061152a565b601f1984166114d886610e84565b60005b82811015611500578489015182556001820191506020850194506020810190506114db565b8683101561151d5784890151611519601f891682610ff6565b8355505b6001600288020188555050505b50505050505056fea2646970667358221220d03cac1d6cebd22788edda93fb7a48d6bc2ecd7f5842dde73b472de0226e040e64736f6c634300081c0033",
          "opcodes": "PUSH1 0x80 PUSH1 0x40 MSTORE CALLVALUE DUP1 ISZERO PUSH2 0x10 JUMPI PUSH1 0x0 DUP1 REVERT JUMPDEST POP CALLER PUSH1 0x0 PUSH20 0xFFFFFFFFFFFFFFFFFFFFFFFFFFFFFFFFFFFFFFFF AND DUP2 PUSH20 0xFFFFFFFFFFFFFFFFFFFFFFFFFFFFFFFFFFFFFFFF AND SUB PUSH2 0x84 JUMPI PUSH1 0x0 PUSH1 0x40 MLOAD PUSH32 0x1E4FBDF700000000000000000000000000000000000000000000000000000000 DUP2 MSTORE PUSH1 0x4 ADD PUSH2 0x7B SWAP2 SWAP1 PUSH2 0x19E JUMP JUMPDEST PUSH1 0x40 MLOAD DUP1 SWAP2 SUB SWAP1 REVERT JUMPDEST PUSH2 0x93 DUP2 PUSH2 0x99 PUSH1 0x20 SHL PUSH1 0x20 SHR JUMP JUMPDEST POP PUSH2 0x1B9 JUMP JUMPDEST PUSH1 0x0 DUP1 PUSH1 0x0 SWAP1 SLOAD SWAP1 PUSH2 0x100 EXP SWAP1 DIV PUSH20 0xFFFFFFFFFFFFFFFFFFFFFFFFFFFFFFFFFFFFFFFF AND SWAP1 POP DUP2 PUSH1 0x0 DUP1 PUSH2 0x100 EXP DUP2 SLOAD DUP2 PUSH20 0xFFFFFFFFFFFFFFFFFFFFFFFFFFFFFFFFFFFFFFFF MUL NOT AND SWAP1 DUP4 PUSH20 0xFFFFFFFFFFFFFFFFFFFFFFFFFFFFFFFFFFFFFFFF AND MUL OR SWAP1 SSTORE POP DUP2 PUSH20 0xFFFFFFFFFFFFFFFFFFFFFFFFFFFFFFFFFFFFFFFF AND DUP2 PUSH20 0xFFFFFFFFFFFFFFFFFFFFFFFFFFFFFFFFFFFFFFFF AND PUSH32 0x8BE0079C531659141344CD1FD0A4F28419497F9722A3DAAFE3B4186F6B6457E0 PUSH1 0x40 MLOAD PUSH1 0x40 MLOAD DUP1 SWAP2 SUB SWAP1 LOG3 POP POP JUMP JUMPDEST PUSH1 0x0 PUSH20 0xFFFFFFFFFFFFFFFFFFFFFFFFFFFFFFFFFFFFFFFF DUP3 AND SWAP1 POP SWAP2 SWAP1 POP JUMP JUMPDEST PUSH1 0x0 PUSH2 0x188 DUP3 PUSH2 0x15D JUMP JUMPDEST SWAP1 POP SWAP2 SWAP1 POP JUMP JUMPDEST PUSH2 0x198 DUP2 PUSH2 0x17D JUMP JUMPDEST DUP3 MSTORE POP POP JUMP JUMPDEST PUSH1 0x0 PUSH1 0x20 DUP3 ADD SWAP1 POP PUSH2 0x1B3 PUSH1 0x0 DUP4 ADD DUP5 PUSH2 0x18F JUMP JUMPDEST SWAP3 SWAP2 POP POP JUMP JUMPDEST PUSH2 0x1568 DUP1 PUSH2 0x1C8 PUSH1 0x0 CODECOPY PUSH1 0x0 RETURN INVALID PUSH1 0x80 PUSH1 0x40 MSTORE PUSH1 0x4 CALLDATASIZE LT PUSH2 0x86 JUMPI PUSH1 0x0 CALLDATALOAD PUSH1 0xE0 SHR DUP1 PUSH4 0x715018A6 GT PUSH2 0x59 JUMPI DUP1 PUSH4 0x715018A6 EQ PUSH2 0x147 JUMPI DUP1 PUSH4 0x8DA5CB5B EQ PUSH2 0x15E JUMPI DUP1 PUSH4 0xC57981B5 EQ PUSH2 0x189 JUMPI DUP1 PUSH4 0xE34F1221 EQ PUSH2 0x1B4 JUMPI DUP1 PUSH4 0xF2FDE38B EQ PUSH2 0x1D0 JUMPI PUSH2 0x86 JUMP JUMPDEST DUP1 PUSH4 0x9D9AFEA EQ PUSH2 0x8B JUMPI DUP1 PUSH4 0x58C2D469 EQ PUSH2 0xB4 JUMPI DUP1 PUSH4 0x66F2BE94 EQ PUSH2 0xF3 JUMPI DUP1 PUSH4 0x6E3C6738 EQ PUSH2 0x11E JUMPI JUMPDEST PUSH1 0x0 DUP1 REVERT JUMPDEST CALLVALUE DUP1 ISZERO PUSH2 0x97 JUMPI PUSH1 0x0 DUP1 REVERT JUMPDEST POP PUSH2 0xB2 PUSH1 0x4 DUP1 CALLDATASIZE SUB DUP2 ADD SWAP1 PUSH2 0xAD SWAP2 SWAP1 PUSH2 0xAA9 JUMP JUMPDEST PUSH2 0x1F9 JUMP JUMPDEST STOP JUMPDEST CALLVALUE DUP1 ISZERO PUSH2 0xC0 JUMPI PUSH1 0x0 DUP1 REVERT JUMPDEST POP PUSH2 0xDB PUSH1 0x4 DUP1 CALLDATASIZE SUB DUP2 ADD SWAP1 PUSH2 0xD6 SWAP2 SWAP1 PUSH2 0xB1D JUMP JUMPDEST PUSH2 0x2E8 JUMP JUMPDEST PUSH1 0x40 MLOAD PUSH2 0xEA SWAP4 SWAP3 SWAP2 SWAP1 PUSH2 0xC60 JUMP JUMPDEST PUSH1 0x40 MLOAD DUP1 SWAP2 SUB SWAP1 RETURN JUMPDEST CALLVALUE DUP1 ISZERO PUSH2 0xFF JUMPI PUSH1 0x0 DUP1 REVERT JUMPDEST POP PUSH2 0x108 PUSH2 0x3B7 JUMP JUMPDEST PUSH1 0x40 MLOAD PUSH2 0x115 SWAP2 SWAP1 PUSH2 0xC9E JUMP JUMPDEST PUSH1 0x40 MLOAD DUP1 SWAP2 SUB SWAP1 RETURN JUMPDEST CALLVALUE DUP1 ISZERO PUSH2 0x12A JUMPI PUSH1 0x0 DUP1 REVERT JUMPDEST POP PUSH2 0x145 PUSH1 0x4 DUP1 CALLDATASIZE SUB DUP2 ADD SWAP1 PUSH2 0x140 SWAP2 SWAP1 PUSH2 0xB1D JUMP JUMPDEST PUSH2 0x3C4 JUMP JUMPDEST STOP JUMPDEST CALLVALUE DUP1 ISZERO PUSH2 0x153 JUMPI PUSH1 0x0 DUP1 REVERT JUMPDEST POP PUSH2 0x15C PUSH2 0x5B8 JUMP JUMPDEST STOP JUMPDEST CALLVALUE DUP1 ISZERO PUSH2 0x16A JUMPI PUSH1 0x0 DUP1 REVERT JUMPDEST POP PUSH2 0x173 PUSH2 0x5CC JUMP JUMPDEST PUSH1 0x40 MLOAD PUSH2 0x180 SWAP2 SWAP1 PUSH2 0xCFA JUMP JUMPDEST PUSH1 0x40 MLOAD DUP1 SWAP2 SUB SWAP1 RETURN JUMPDEST CALLVALUE DUP1 ISZERO PUSH2 0x195 JUMPI PUSH1 0x0 DUP1 REVERT JUMPDEST POP PUSH2 0x19E PUSH2 0x5F5 JUMP JUMPDEST PUSH1 0x40 MLOAD PUSH2 0x1AB SWAP2 SWAP1 PUSH2 0xC9E JUMP JUMPDEST PUSH1 0x40 MLOAD DUP1 SWAP2 SUB SWAP1 RETURN JUMPDEST PUSH2 0x1CE PUSH1 0x4 DUP1 CALLDATASIZE SUB DUP2 ADD SWAP1 PUSH2 0x1C9 SWAP2 SWAP1 PUSH2 0xD15 JUMP JUMPDEST PUSH2 0x600 JUMP JUMPDEST STOP JUMPDEST CALLVALUE DUP1 ISZERO PUSH2 0x1DC JUMPI PUSH1 0x0 DUP1 REVERT JUMPDEST POP PUSH2 0x1F7 PUSH1 0x4 DUP1 CALLDATASIZE SUB DUP2 ADD SWAP1 PUSH2 0x1F2 SWAP2 SWAP1 PUSH2 0xD8E JUMP JUMPDEST PUSH2 0x7A9 JUMP JUMPDEST STOP JUMPDEST PUSH2 0x201 PUSH2 0x82F JUMP JUMPDEST DUP3 PUSH1 0x1 DUP6 DUP2 SLOAD DUP2 LT PUSH2 0x216 JUMPI PUSH2 0x215 PUSH2 0xDBB JUMP JUMPDEST JUMPDEST SWAP1 PUSH1 0x0 MSTORE PUSH1 0x20 PUSH1 0x0 KECCAK256 SWAP1 PUSH1 0x3 MUL ADD PUSH1 0x1 ADD PUSH1 0x0 PUSH2 0x100 EXP DUP2 SLOAD DUP2 PUSH1 0xFF MUL NOT AND SWAP1 DUP4 PUSH1 0x2 DUP2 GT ISZERO PUSH2 0x249 JUMPI PUSH2 0x248 PUSH2 0xBDA JUMP JUMPDEST JUMPDEST MUL OR SWAP1 SSTORE POP DUP2 DUP2 PUSH1 0x1 DUP7 DUP2 SLOAD DUP2 LT PUSH2 0x264 JUMPI PUSH2 0x263 PUSH2 0xDBB JUMP JUMPDEST JUMPDEST SWAP1 PUSH1 0x0 MSTORE PUSH1 0x20 PUSH1 0x0 KECCAK256 SWAP1 PUSH1 0x3 MUL ADD PUSH1 0x0 ADD SWAP2 DUP3 PUSH2 0x282 SWAP3 SWAP2 SWAP1 PUSH2 0x1030 JUMP JUMPDEST POP PUSH32 0xA89D447B03C57EF39D59D3DCA3478BA51528310FC6B614140AD428E90498FD3 DUP3 DUP3 PUSH1 0x40 MLOAD PUSH1 0x20 ADD PUSH2 0x2B7 SWAP3 SWAP2 SWAP1 PUSH2 0x113F JUMP JUMPDEST PUSH1 0x40 MLOAD PUSH1 0x20 DUP2 DUP4 SUB SUB DUP2 MSTORE SWAP1 PUSH1 0x40 MSTORE DUP1 MLOAD SWAP1 PUSH1 0x20 ADD KECCAK256 PUSH1 0x40 MLOAD PUSH2 0x2DA SWAP2 SWAP1 PUSH2 0x1171 JUMP JUMPDEST PUSH1 0x40 MLOAD DUP1 SWAP2 SUB SWAP1 LOG1 POP POP POP POP JUMP JUMPDEST PUSH1 0x1 DUP2 DUP2 SLOAD DUP2 LT PUSH2 0x2F8 JUMPI PUSH1 0x0 DUP1 REVERT JUMPDEST SWAP1 PUSH1 0x0 MSTORE PUSH1 0x20 PUSH1 0x0 KECCAK256 SWAP1 PUSH1 0x3 MUL ADD PUSH1 0x0 SWAP2 POP SWAP1 POP DUP1 PUSH1 0x0 ADD DUP1 SLOAD PUSH2 0x31B SWAP1 PUSH2 0xE53 JUMP JUMPDEST DUP1 PUSH1 0x1F ADD PUSH1 0x20 DUP1 SWAP2 DIV MUL PUSH1 0x20 ADD PUSH1 0x40 MLOAD SWAP1 DUP2 ADD PUSH1 0x40 MSTORE DUP1 SWAP3 SWAP2 SWAP1 DUP2 DUP2 MSTORE PUSH1 0x20 ADD DUP3 DUP1 SLOAD PUSH2 0x347 SWAP1 PUSH2 0xE53 JUMP JUMPDEST DUP1 ISZERO PUSH2 0x394 JUMPI DUP1 PUSH1 0x1F LT PUSH2 0x369 JUMPI PUSH2 0x100 DUP1 DUP4 SLOAD DIV MUL DUP4 MSTORE SWAP2 PUSH1 0x20 ADD SWAP2 PUSH2 0x394 JUMP JUMPDEST DUP3 ADD SWAP2 SWAP1 PUSH1 0x0 MSTORE PUSH1 0x20 PUSH1 0x0 KECCAK256 SWAP1 JUMPDEST DUP2 SLOAD DUP2 MSTORE SWAP1 PUSH1 0x1 ADD SWAP1 PUSH1 0x20 ADD DUP1 DUP4 GT PUSH2 0x377 JUMPI DUP3 SWAP1 SUB PUSH1 0x1F AND DUP3 ADD SWAP2 JUMPDEST POP POP POP POP POP SWAP1 DUP1 PUSH1 0x1 ADD PUSH1 0x0 SWAP1 SLOAD SWAP1 PUSH2 0x100 EXP SWAP1 DIV PUSH1 0xFF AND SWAP1 DUP1 PUSH1 0x2 ADD SLOAD SWAP1 POP DUP4 JUMP JUMPDEST PUSH1 0x0 PUSH1 0x1 DUP1 SLOAD SWAP1 POP SWAP1 POP SWAP1 JUMP JUMPDEST PUSH2 0x3CC PUSH2 0x82F JUMP JUMPDEST PUSH1 0x1 DUP1 DUP1 DUP1 SLOAD SWAP1 POP PUSH2 0x3DE SWAP2 SWAP1 PUSH2 0x11BB JUMP JUMPDEST DUP2 SLOAD DUP2 LT PUSH2 0x3EF JUMPI PUSH2 0x3EE PUSH2 0xDBB JUMP JUMPDEST JUMPDEST SWAP1 PUSH1 0x0 MSTORE PUSH1 0x20 PUSH1 0x0 KECCAK256 SWAP1 PUSH1 0x3 MUL ADD PUSH1 0x1 DUP3 DUP2 SLOAD DUP2 LT PUSH2 0x411 JUMPI PUSH2 0x410 PUSH2 0xDBB JUMP JUMPDEST JUMPDEST SWAP1 PUSH1 0x0 MSTORE PUSH1 0x20 PUSH1 0x0 KECCAK256 SWAP1 PUSH1 0x3 MUL ADD PUSH1 0x0 DUP3 ADD DUP2 PUSH1 0x0 ADD SWAP1 DUP2 PUSH2 0x433 SWAP2 SWAP1 PUSH2 0x1205 JUMP JUMPDEST POP PUSH1 0x1 DUP3 ADD PUSH1 0x0 SWAP1 SLOAD SWAP1 PUSH2 0x100 EXP SWAP1 DIV PUSH1 0xFF AND DUP2 PUSH1 0x1 ADD PUSH1 0x0 PUSH2 0x100 EXP DUP2 SLOAD DUP2 PUSH1 0xFF MUL NOT AND SWAP1 DUP4 PUSH1 0x2 DUP2 GT ISZERO PUSH2 0x46C JUMPI PUSH2 0x46B PUSH2 0xBDA JUMP JUMPDEST JUMPDEST MUL OR SWAP1 SSTORE POP PUSH1 0x2 DUP3 ADD SLOAD DUP2 PUSH1 0x2 ADD SSTORE SWAP1 POP POP PUSH1 0x1 DUP1 SLOAD DUP1 PUSH2 0x490 JUMPI PUSH2 0x48F PUSH2 0x12ED JUMP JUMPDEST JUMPDEST PUSH1 0x1 SWAP1 SUB DUP2 DUP2 SWAP1 PUSH1 0x0 MSTORE PUSH1 0x20 PUSH1 0x0 KECCAK256 SWAP1 PUSH1 0x3 MUL ADD PUSH1 0x0 DUP1 DUP3 ADD PUSH1 0x0 PUSH2 0x4B5 SWAP2 SWAP1 PUSH2 0x982 JUMP JUMPDEST PUSH1 0x1 DUP3 ADD PUSH1 0x0 PUSH2 0x100 EXP DUP2 SLOAD SWAP1 PUSH1 0xFF MUL NOT AND SWAP1 SSTORE PUSH1 0x2 DUP3 ADD PUSH1 0x0 SWAP1 SSTORE POP POP SWAP1 SSTORE PUSH1 0x0 CALLER PUSH20 0xFFFFFFFFFFFFFFFFFFFFFFFFFFFFFFFFFFFFFFFF AND PUSH7 0x2386F26FC10000 PUSH1 0x40 MLOAD PUSH2 0x502 SWAP1 PUSH2 0x134D JUMP JUMPDEST PUSH1 0x0 PUSH1 0x40 MLOAD DUP1 DUP4 SUB DUP2 DUP6 DUP8 GAS CALL SWAP3 POP POP POP RETURNDATASIZE DUP1 PUSH1 0x0 DUP2 EQ PUSH2 0x53F JUMPI PUSH1 0x40 MLOAD SWAP2 POP PUSH1 0x1F NOT PUSH1 0x3F RETURNDATASIZE ADD AND DUP3 ADD PUSH1 0x40 MSTORE RETURNDATASIZE DUP3 MSTORE RETURNDATASIZE PUSH1 0x0 PUSH1 0x20 DUP5 ADD RETURNDATACOPY PUSH2 0x544 JUMP JUMPDEST PUSH1 0x60 SWAP2 POP JUMPDEST POP POP SWAP1 POP DUP1 PUSH2 0x588 JUMPI PUSH1 0x40 MLOAD PUSH32 0x8C379A000000000000000000000000000000000000000000000000000000000 DUP2 MSTORE PUSH1 0x4 ADD PUSH2 0x57F SWAP1 PUSH2 0x13AE JUMP JUMPDEST PUSH1 0x40 MLOAD DUP1 SWAP2 SUB SWAP1 REVERT JUMPDEST PUSH32 0x67AA58ABC396F7C2A8EA6AC09860DCDE0D063A13F87AA70950229A0698CCF2DE PUSH1 0x40 MLOAD PUSH1 0x40 MLOAD DUP1 SWAP2 SUB SWAP1 LOG1 POP POP JUMP JUMPDEST PUSH2 0x5C0 PUSH2 0x82F JUMP JUMPDEST PUSH2 0x5CA PUSH1 0x0 PUSH2 0x8B6 JUMP JUMPDEST JUMP JUMPDEST PUSH1 0x0 DUP1 PUSH1 0x0 SWAP1 SLOAD SWAP1 PUSH2 0x100 EXP SWAP1 DIV PUSH20 0xFFFFFFFFFFFFFFFFFFFFFFFFFFFFFFFFFFFFFFFF AND SWAP1 POP SWAP1 JUMP JUMPDEST PUSH7 0x2386F26FC10000 DUP2 JUMP JUMPDEST PUSH2 0x608 PUSH2 0x82F JUMP JUMPDEST PUSH7 0x2386F26FC10000 CALLVALUE EQ PUSH2 0x651 JUMPI PUSH1 0x40 MLOAD PUSH32 0x8C379A000000000000000000000000000000000000000000000000000000000 DUP2 MSTORE PUSH1 0x4 ADD PUSH2 0x648 SWAP1 PUSH2 0x1440 JUMP JUMPDEST PUSH1 0x40 MLOAD DUP1 SWAP2 SUB SWAP1 REVERT JUMPDEST PUSH1 0x0 PUSH1 0x40 MLOAD DUP1 PUSH1 0x60 ADD PUSH1 0x40 MSTORE DUP1 DUP5 DUP5 DUP1 DUP1 PUSH1 0x1F ADD PUSH1 0x20 DUP1 SWAP2 DIV MUL PUSH1 0x20 ADD PUSH1 0x40 MLOAD SWAP1 DUP2 ADD PUSH1 0x40 MSTORE DUP1 SWAP4 SWAP3 SWAP2 SWAP1 DUP2 DUP2 MSTORE PUSH1 0x20 ADD DUP4 DUP4 DUP1 DUP3 DUP5 CALLDATACOPY PUSH1 0x0 DUP2 DUP5 ADD MSTORE PUSH1 0x1F NOT PUSH1 0x1F DUP3 ADD AND SWAP1 POP DUP1 DUP4 ADD SWAP3 POP POP POP POP POP POP POP DUP2 MSTORE PUSH1 0x20 ADD PUSH1 0x0 PUSH1 0x2 DUP2 GT ISZERO PUSH2 0x6BC JUMPI PUSH2 0x6BB PUSH2 0xBDA JUMP JUMPDEST JUMPDEST DUP2 MSTORE PUSH1 0x20 ADD TIMESTAMP DUP2 MSTORE POP SWAP1 POP PUSH1 0x1 DUP2 SWAP1 DUP1 PUSH1 0x1 DUP2 SLOAD ADD DUP1 DUP3 SSTORE DUP1 SWAP2 POP POP PUSH1 0x1 SWAP1 SUB SWAP1 PUSH1 0x0 MSTORE PUSH1 0x20 PUSH1 0x0 KECCAK256 SWAP1 PUSH1 0x3 MUL ADD PUSH1 0x0 SWAP1 SWAP2 SWAP1 SWAP2 SWAP1 SWAP2 POP PUSH1 0x0 DUP3 ADD MLOAD DUP2 PUSH1 0x0 ADD SWAP1 DUP2 PUSH2 0x708 SWAP2 SWAP1 PUSH2 0x1460 JUMP JUMPDEST POP PUSH1 0x20 DUP3 ADD MLOAD DUP2 PUSH1 0x1 ADD PUSH1 0x0 PUSH2 0x100 EXP DUP2 SLOAD DUP2 PUSH1 0xFF MUL NOT AND SWAP1 DUP4 PUSH1 0x2 DUP2 GT ISZERO PUSH2 0x734 JUMPI PUSH2 0x733 PUSH2 0xBDA JUMP JUMPDEST JUMPDEST MUL OR SWAP1 SSTORE POP PUSH1 0x40 DUP3 ADD MLOAD DUP2 PUSH1 0x2 ADD SSTORE POP POP PUSH32 0xE5CBFB05332D78282DFC7FA4461C8BF821879AA086DEEF210C22AC365472A5AE DUP4 DUP4 PUSH1 0x40 MLOAD PUSH1 0x20 ADD PUSH2 0x779 SWAP3 SWAP2 SWAP1 PUSH2 0x113F JUMP JUMPDEST PUSH1 0x40 MLOAD PUSH1 0x20 DUP2 DUP4 SUB SUB DUP2 MSTORE SWAP1 PUSH1 0x40 MSTORE DUP1 MLOAD SWAP1 PUSH1 0x20 ADD KECCAK256 PUSH1 0x40 MLOAD PUSH2 0x79C SWAP2 SWAP1 PUSH2 0x1171 JUMP JUMPDEST PUSH1 0x40 MLOAD DUP1 SWAP2 SUB SWAP1 LOG1 POP POP POP JUMP JUMPDEST PUSH2 0x7B1 PUSH2 0x82F JUMP JUMPDEST PUSH1 0x0 PUSH20 0xFFFFFFFFFFFFFFFFFFFFFFFFFFFFFFFFFFFFFFFF AND DUP2 PUSH20 0xFFFFFFFFFFFFFFFFFFFFFFFFFFFFFFFFFFFFFFFF AND SUB PUSH2 0x823 JUMPI PUSH1 0x0 PUSH1 0x40 MLOAD PUSH32 0x1E4FBDF700000000000000000000000000000000000000000000000000000000 DUP2 MSTORE PUSH1 0x4 ADD PUSH2 0x81A SWAP2 SWAP1 PUSH2 0xCFA JUMP JUMPDEST PUSH1 0x40 MLOAD DUP1 SWAP2 SUB SWAP1 REVERT JUMPDEST PUSH2 0x82C DUP2 PUSH2 0x8B6 JUMP JUMPDEST POP JUMP JUMPDEST PUSH2 0x837 PUSH2 0x97A JUMP JUMPDEST PUSH20 0xFFFFFFFFFFFFFFFFFFFFFFFFFFFFFFFFFFFFFFFF AND PUSH2 0x855 PUSH2 0x5CC JUMP JUMPDEST PUSH20 0xFFFFFFFFFFFFFFFFFFFFFFFFFFFFFFFFFFFFFFFF AND EQ PUSH2 0x8B4 JUMPI PUSH2 0x878 PUSH2 0x97A JUMP JUMPDEST PUSH1 0x40 MLOAD PUSH32 0x118CDAA700000000000000000000000000000000000000000000000000000000 DUP2 MSTORE PUSH1 0x4 ADD PUSH2 0x8AB SWAP2 SWAP1 PUSH2 0xCFA JUMP JUMPDEST PUSH1 0x40 MLOAD DUP1 SWAP2 SUB SWAP1 REVERT JUMPDEST JUMP JUMPDEST PUSH1 0x0 DUP1 PUSH1 0x0 SWAP1 SLOAD SWAP1 PUSH2 0x100 EXP SWAP1 DIV PUSH20 0xFFFFFFFFFFFFFFFFFFFFFFFFFFFFFFFFFFFFFFFF AND SWAP1 POP DUP2 PUSH1 0x0 DUP1 PUSH2 0x100 EXP DUP2 SLOAD DUP2 PUSH20 0xFFFFFFFFFFFFFFFFFFFFFFFFFFFFFFFFFFFFFFFF MUL NOT AND SWAP1 DUP4 PUSH20 0xFFFFFFFFFFFFFFFFFFFFFFFFFFFFFFFFFFFFFFFF AND MUL OR SWAP1 SSTORE POP DUP2 PUSH20 0xFFFFFFFFFFFFFFFFFFFFFFFFFFFFFFFFFFFFFFFF AND DUP2 PUSH20 0xFFFFFFFFFFFFFFFFFFFFFFFFFFFFFFFFFFFFFFFF AND PUSH32 0x8BE0079C531659141344CD1FD0A4F28419497F9722A3DAAFE3B4186F6B6457E0 PUSH1 0x40 MLOAD PUSH1 0x40 MLOAD DUP1 SWAP2 SUB SWAP1 LOG3 POP POP JUMP JUMPDEST PUSH1 0x0 CALLER SWAP1 POP SWAP1 JUMP JUMPDEST POP DUP1 SLOAD PUSH2 0x98E SWAP1 PUSH2 0xE53 JUMP JUMPDEST PUSH1 0x0 DUP3 SSTORE DUP1 PUSH1 0x1F LT PUSH2 0x9A0 JUMPI POP PUSH2 0x9BF JUMP JUMPDEST PUSH1 0x1F ADD PUSH1 0x20 SWAP1 DIV SWAP1 PUSH1 0x0 MSTORE PUSH1 0x20 PUSH1 0x0 KECCAK256 SWAP1 DUP2 ADD SWAP1 PUSH2 0x9BE SWAP2 SWAP1 PUSH2 0x9C2 JUMP JUMPDEST JUMPDEST POP JUMP JUMPDEST JUMPDEST DUP1 DUP3 GT ISZERO PUSH2 0x9DB JUMPI PUSH1 0x0 DUP2 PUSH1 0x0 SWAP1 SSTORE POP PUSH1 0x1 ADD PUSH2 0x9C3 JUMP JUMPDEST POP SWAP1 JUMP JUMPDEST PUSH1 0x0 DUP1 REVERT JUMPDEST PUSH1 0x0 DUP1 REVERT JUMPDEST PUSH1 0x0 DUP2 SWAP1 POP SWAP2 SWAP1 POP JUMP JUMPDEST PUSH2 0x9FC DUP2 PUSH2 0x9E9 JUMP JUMPDEST DUP2 EQ PUSH2 0xA07 JUMPI PUSH1 0x0 DUP1 REVERT JUMPDEST POP JUMP JUMPDEST PUSH1 0x0 DUP2 CALLDATALOAD SWAP1 POP PUSH2 0xA19 DUP2 PUSH2 0x9F3 JUMP JUMPDEST SWAP3 SWAP2 POP POP JUMP JUMPDEST PUSH1 0x3 DUP2 LT PUSH2 0xA2C JUMPI PUSH1 0x0 DUP1 REVERT JUMPDEST POP JUMP JUMPDEST PUSH1 0x0 DUP2 CALLDATALOAD SWAP1 POP PUSH2 0xA3E DUP2 PUSH2 0xA1F JUMP JUMPDEST SWAP3 SWAP2 POP POP JUMP JUMPDEST PUSH1 0x0 DUP1 REVERT JUMPDEST PUSH1 0x0 DUP1 REVERT JUMPDEST PUSH1 0x0 DUP1 REVERT JUMPDEST PUSH1 0x0 DUP1 DUP4 PUSH1 0x1F DUP5 ADD SLT PUSH2 0xA69 JUMPI PUSH2 0xA68 PUSH2 0xA44 JUMP JUMPDEST JUMPDEST DUP3 CALLDATALOAD SWAP1 POP PUSH8 0xFFFFFFFFFFFFFFFF DUP2 GT ISZERO PUSH2 0xA86 JUMPI PUSH2 0xA85 PUSH2 0xA49 JUMP JUMPDEST JUMPDEST PUSH1 0x20 DUP4 ADD SWAP2 POP DUP4 PUSH1 0x1 DUP3 MUL DUP4 ADD GT ISZERO PUSH2 0xAA2 JUMPI PUSH2 0xAA1 PUSH2 0xA4E JUMP JUMPDEST JUMPDEST SWAP3 POP SWAP3 SWAP1 POP JUMP JUMPDEST PUSH1 0x0 DUP1 PUSH1 0x0 DUP1 PUSH1 0x60 DUP6 DUP8 SUB SLT ISZERO PUSH2 0xAC3 JUMPI PUSH2 0xAC2 PUSH2 0x9DF JUMP JUMPDEST JUMPDEST PUSH1 0x0 PUSH2 0xAD1 DUP8 DUP3 DUP9 ADD PUSH2 0xA0A JUMP JUMPDEST SWAP5 POP POP PUSH1 0x20 PUSH2 0xAE2 DUP8 DUP3 DUP9 ADD PUSH2 0xA2F JUMP JUMPDEST SWAP4 POP POP PUSH1 0x40 DUP6 ADD CALLDATALOAD PUSH8 0xFFFFFFFFFFFFFFFF DUP2 GT ISZERO PUSH2 0xB03 JUMPI PUSH2 0xB02 PUSH2 0x9E4 JUMP JUMPDEST JUMPDEST PUSH2 0xB0F DUP8 DUP3 DUP9 ADD PUSH2 0xA53 JUMP JUMPDEST SWAP3 POP SWAP3 POP POP SWAP3 SWAP6 SWAP2 SWAP5 POP SWAP3 POP JUMP JUMPDEST PUSH1 0x0 PUSH1 0x20 DUP3 DUP5 SUB SLT ISZERO PUSH2 0xB33 JUMPI PUSH2 0xB32 PUSH2 0x9DF JUMP JUMPDEST JUMPDEST PUSH1 0x0 PUSH2 0xB41 DUP5 DUP3 DUP6 ADD PUSH2 0xA0A JUMP JUMPDEST SWAP2 POP POP SWAP3 SWAP2 POP POP JUMP JUMPDEST PUSH1 0x0 DUP2 MLOAD SWAP1 POP SWAP2 SWAP1 POP JUMP JUMPDEST PUSH1 0x0 DUP3 DUP3 MSTORE PUSH1 0x20 DUP3 ADD SWAP1 POP SWAP3 SWAP2 POP POP JUMP JUMPDEST PUSH1 0x0 JUMPDEST DUP4 DUP2 LT ISZERO PUSH2 0xB84 JUMPI DUP1 DUP3 ADD MLOAD DUP2 DUP5 ADD MSTORE PUSH1 0x20 DUP2 ADD SWAP1 POP PUSH2 0xB69 JUMP JUMPDEST PUSH1 0x0 DUP5 DUP5 ADD MSTORE POP POP POP POP JUMP JUMPDEST PUSH1 0x0 PUSH1 0x1F NOT PUSH1 0x1F DUP4 ADD AND SWAP1 POP SWAP2 SWAP1 POP JUMP JUMPDEST PUSH1 0x0 PUSH2 0xBAC DUP3 PUSH2 0xB4A JUMP JUMPDEST PUSH2 0xBB6 DUP2 DUP6 PUSH2 0xB55 JUMP JUMPDEST SWAP4 POP PUSH2 0xBC6 DUP2 DUP6 PUSH1 0x20 DUP7 ADD PUSH2 0xB66 JUMP JUMPDEST PUSH2 0xBCF DUP2 PUSH2 0xB90 JUMP JUMPDEST DUP5 ADD SWAP2 POP POP SWAP3 SWAP2 POP POP JUMP JUMPDEST PUSH32 0x4E487B7100000000000000000000000000000000000000000000000000000000 PUSH1 0x0 MSTORE PUSH1 0x21 PUSH1 0x4 MSTORE PUSH1 0x24 PUSH1 0x0 REVERT JUMPDEST PUSH1 0x3 DUP2 LT PUSH2 0xC1A JUMPI PUSH2 0xC19 PUSH2 0xBDA JUMP JUMPDEST JUMPDEST POP JUMP JUMPDEST PUSH1 0x0 DUP2 SWAP1 POP PUSH2 0xC2B DUP3 PUSH2 0xC09 JUMP JUMPDEST SWAP2 SWAP1 POP JUMP JUMPDEST PUSH1 0x0 PUSH2 0xC3B DUP3 PUSH2 0xC1D JUMP JUMPDEST SWAP1 POP SWAP2 SWAP1 POP JUMP JUMPDEST PUSH2 0xC4B DUP2 PUSH2 0xC30 JUMP JUMPDEST DUP3 MSTORE POP POP JUMP JUMPDEST PUSH2 0xC5A DUP2 PUSH2 0x9E9 JUMP JUMPDEST DUP3 MSTORE POP POP JUMP JUMPDEST PUSH1 0x0 PUSH1 0x60 DUP3 ADD SWAP1 POP DUP2 DUP2 SUB PUSH1 0x0 DUP4 ADD MSTORE PUSH2 0xC7A DUP2 DUP7 PUSH2 0xBA1 JUMP JUMPDEST SWAP1 POP PUSH2 0xC89 PUSH1 0x20 DUP4 ADD DUP6 PUSH2 0xC42 JUMP JUMPDEST PUSH2 0xC96 PUSH1 0x40 DUP4 ADD DUP5 PUSH2 0xC51 JUMP JUMPDEST SWAP5 SWAP4 POP POP POP POP JUMP JUMPDEST PUSH1 0x0 PUSH1 0x20 DUP3 ADD SWAP1 POP PUSH2 0xCB3 PUSH1 0x0 DUP4 ADD DUP5 PUSH2 0xC51 JUMP JUMPDEST SWAP3 SWAP2 POP POP JUMP JUMPDEST PUSH1 0x0 PUSH20 0xFFFFFFFFFFFFFFFFFFFFFFFFFFFFFFFFFFFFFFFF DUP3 AND SWAP1 POP SWAP2 SWAP1 POP JUMP JUMPDEST PUSH1 0x0 PUSH2 0xCE4 DUP3 PUSH2 0xCB9 JUMP JUMPDEST SWAP1 POP SWAP2 SWAP1 POP JUMP JUMPDEST PUSH2 0xCF4 DUP2 PUSH2 0xCD9 JUMP JUMPDEST DUP3 MSTORE POP POP JUMP JUMPDEST PUSH1 0x0 PUSH1 0x20 DUP3 ADD SWAP1 POP PUSH2 0xD0F PUSH1 0x0 DUP4 ADD DUP5 PUSH2 0xCEB JUMP JUMPDEST SWAP3 SWAP2 POP POP JUMP JUMPDEST PUSH1 0x0 DUP1 PUSH1 0x20 DUP4 DUP6 SUB SLT ISZERO PUSH2 0xD2C JUMPI PUSH2 0xD2B PUSH2 0x9DF JUMP JUMPDEST JUMPDEST PUSH1 0x0 DUP4 ADD CALLDATALOAD PUSH8 0xFFFFFFFFFFFFFFFF DUP2 GT ISZERO PUSH2 0xD4A JUMPI PUSH2 0xD49 PUSH2 0x9E4 JUMP JUMPDEST JUMPDEST PUSH2 0xD56 DUP6 DUP3 DUP7 ADD PUSH2 0xA53 JUMP JUMPDEST SWAP3 POP SWAP3 POP POP SWAP3 POP SWAP3 SWAP1 POP JUMP JUMPDEST PUSH2 0xD6B DUP2 PUSH2 0xCD9 JUMP JUMPDEST DUP2 EQ PUSH2 0xD76 JUMPI PUSH1 0x0 DUP1 REVERT JUMPDEST POP JUMP JUMPDEST PUSH1 0x0 DUP2 CALLDATALOAD SWAP1 POP PUSH2 0xD88 DUP2 PUSH2 0xD62 JUMP JUMPDEST SWAP3 SWAP2 POP POP JUMP JUMPDEST PUSH1 0x0 PUSH1 0x20 DUP3 DUP5 SUB SLT ISZERO PUSH2 0xDA4 JUMPI PUSH2 0xDA3 PUSH2 0x9DF JUMP JUMPDEST JUMPDEST PUSH1 0x0 PUSH2 0xDB2 DUP5 DUP3 DUP6 ADD PUSH2 0xD79 JUMP JUMPDEST SWAP2 POP POP SWAP3 SWAP2 POP POP JUMP JUMPDEST PUSH32 0x4E487B7100000000000000000000000000000000000000000000000000000000 PUSH1 0x0 MSTORE PUSH1 0x32 PUSH1 0x4 MSTORE PUSH1 0x24 PUSH1 0x0 REVERT JUMPDEST PUSH1 0x0 DUP3 SWAP1 POP SWAP3 SWAP2 POP POP JUMP JUMPDEST PUSH32 0x4E487B7100000000000000000000000000000000000000000000000000000000 PUSH1 0x0 MSTORE PUSH1 0x41 PUSH1 0x4 MSTORE PUSH1 0x24 PUSH1 0x0 REVERT JUMPDEST PUSH32 0x4E487B7100000000000000000000000000000000000000000000000000000000 PUSH1 0x0 MSTORE PUSH1 0x22 PUSH1 0x4 MSTORE PUSH1 0x24 PUSH1 0x0 REVERT JUMPDEST PUSH1 0x0 PUSH1 0x2 DUP3 DIV SWAP1 POP PUSH1 0x1 DUP3 AND DUP1 PUSH2 0xE6B JUMPI PUSH1 0x7F DUP3 AND SWAP2 POP JUMPDEST PUSH1 0x20 DUP3 LT DUP2 SUB PUSH2 0xE7E JUMPI PUSH2 0xE7D PUSH2 0xE24 JUMP JUMPDEST JUMPDEST POP SWAP2 SWAP1 POP JUMP JUMPDEST PUSH1 0x0 DUP2 SWAP1 POP DUP2 PUSH1 0x0 MSTORE PUSH1 0x20 PUSH1 0x0 KECCAK256 SWAP1 POP SWAP2 SWAP1 POP JUMP JUMPDEST PUSH1 0x0 PUSH1 0x20 PUSH1 0x1F DUP4 ADD DIV SWAP1 POP SWAP2 SWAP1 POP JUMP JUMPDEST PUSH1 0x0 DUP3 DUP3 SHL SWAP1 POP SWAP3 SWAP2 POP POP JUMP JUMPDEST PUSH1 0x0 PUSH1 0x8 DUP4 MUL PUSH2 0xEE6 PUSH32 0xFFFFFFFFFFFFFFFFFFFFFFFFFFFFFFFFFFFFFFFFFFFFFFFFFFFFFFFFFFFFFFFF DUP3 PUSH2 0xEA9 JUMP JUMPDEST PUSH2 0xEF0 DUP7 DUP4 PUSH2 0xEA9 JUMP JUMPDEST SWAP6 POP DUP1 NOT DUP5 AND SWAP4 POP DUP1 DUP7 AND DUP5 OR SWAP3 POP POP POP SWAP4 SWAP3 POP POP POP JUMP JUMPDEST PUSH1 0x0 DUP2 SWAP1 POP SWAP2 SWAP1 POP JUMP JUMPDEST PUSH1 0x0 PUSH2 0xF2D PUSH2 0xF28 PUSH2 0xF23 DUP5 PUSH2 0x9E9 JUMP JUMPDEST PUSH2 0xF08 JUMP JUMPDEST PUSH2 0x9E9 JUMP JUMPDEST SWAP1 POP SWAP2 SWAP1 POP JUMP JUMPDEST PUSH1 0x0 DUP2 SWAP1 POP SWAP2 SWAP1 POP JUMP JUMPDEST PUSH2 0xF47 DUP4 PUSH2 0xF12 JUMP JUMPDEST PUSH2 0xF5B PUSH2 0xF53 DUP3 PUSH2 0xF34 JUMP JUMPDEST DUP5 DUP5 SLOAD PUSH2 0xEB6 JUMP JUMPDEST DUP3 SSTORE POP POP POP POP JUMP JUMPDEST PUSH1 0x0 SWAP1 JUMP JUMPDEST PUSH2 0xF70 PUSH2 0xF63 JUMP JUMPDEST PUSH2 0xF7B DUP2 DUP5 DUP5 PUSH2 0xF3E JUMP JUMPDEST POP POP POP JUMP JUMPDEST JUMPDEST DUP2 DUP2 LT ISZERO PUSH2 0xF9F JUMPI PUSH2 0xF94 PUSH1 0x0 DUP3 PUSH2 0xF68 JUMP JUMPDEST PUSH1 0x1 DUP2 ADD SWAP1 POP PUSH2 0xF81 JUMP JUMPDEST POP POP JUMP JUMPDEST PUSH1 0x1F DUP3 GT ISZERO PUSH2 0xFE4 JUMPI PUSH2 0xFB5 DUP2 PUSH2 0xE84 JUMP JUMPDEST PUSH2 0xFBE DUP5 PUSH2 0xE99 JUMP JUMPDEST DUP2 ADD PUSH1 0x20 DUP6 LT ISZERO PUSH2 0xFCD JUMPI DUP2 SWAP1 POP JUMPDEST PUSH2 0xFE1 PUSH2 0xFD9 DUP6 PUSH2 0xE99 JUMP JUMPDEST DUP4 ADD DUP3 PUSH2 0xF80 JUMP JUMPDEST POP POP JUMPDEST POP POP POP JUMP JUMPDEST PUSH1 0x0 DUP3 DUP3 SHR SWAP1 POP SWAP3 SWAP2 POP POP JUMP JUMPDEST PUSH1 0x0 PUSH2 0x1007 PUSH1 0x0 NOT DUP5 PUSH1 0x8 MUL PUSH2 0xFE9 JUMP JUMPDEST NOT DUP1 DUP4 AND SWAP2 POP POP SWAP3 SWAP2 POP POP JUMP JUMPDEST PUSH1 0x0 PUSH2 0x1020 DUP4 DUP4 PUSH2 0xFF6 JUMP JUMPDEST SWAP2 POP DUP3 PUSH1 0x2 MUL DUP3 OR SWAP1 POP SWAP3 SWAP2 POP POP JUMP JUMPDEST PUSH2 0x103A DUP4 DUP4 PUSH2 0xDEA JUMP JUMPDEST PUSH8 0xFFFFFFFFFFFFFFFF DUP2 GT ISZERO PUSH2 0x1053 JUMPI PUSH2 0x1052 PUSH2 0xDF5 JUMP JUMPDEST JUMPDEST PUSH2 0x105D DUP3 SLOAD PUSH2 0xE53 JUMP JUMPDEST PUSH2 0x1068 DUP3 DUP3 DUP6 PUSH2 0xFA3 JUMP JUMPDEST PUSH1 0x0 PUSH1 0x1F DUP4 GT PUSH1 0x1 DUP2 EQ PUSH2 0x1097 JUMPI PUSH1 0x0 DUP5 ISZERO PUSH2 0x1085 JUMPI DUP3 DUP8 ADD CALLDATALOAD SWAP1 POP JUMPDEST PUSH2 0x108F DUP6 DUP3 PUSH2 0x1014 JUMP JUMPDEST DUP7 SSTORE POP PUSH2 0x10F7 JUMP JUMPDEST PUSH1 0x1F NOT DUP5 AND PUSH2 0x10A5 DUP7 PUSH2 0xE84 JUMP JUMPDEST PUSH1 0x0 JUMPDEST DUP3 DUP2 LT ISZERO PUSH2 0x10CD JUMPI DUP5 DUP10 ADD CALLDATALOAD DUP3 SSTORE PUSH1 0x1 DUP3 ADD SWAP2 POP PUSH1 0x20 DUP6 ADD SWAP5 POP PUSH1 0x20 DUP2 ADD SWAP1 POP PUSH2 0x10A8 JUMP JUMPDEST DUP7 DUP4 LT ISZERO PUSH2 0x10EA JUMPI DUP5 DUP10 ADD CALLDATALOAD PUSH2 0x10E6 PUSH1 0x1F DUP10 AND DUP3 PUSH2 0xFF6 JUMP JUMPDEST DUP4 SSTORE POP JUMPDEST PUSH1 0x1 PUSH1 0x2 DUP9 MUL ADD DUP9 SSTORE POP POP POP JUMPDEST POP POP POP POP POP POP POP JUMP JUMPDEST PUSH1 0x0 DUP2 SWAP1 POP SWAP3 SWAP2 POP POP JUMP JUMPDEST DUP3 DUP2 DUP4 CALLDATACOPY PUSH1 0x0 DUP4 DUP4 ADD MSTORE POP POP POP JUMP JUMPDEST PUSH1 0x0 PUSH2 0x1126 DUP4 DUP6 PUSH2 0x1100 JUMP JUMPDEST SWAP4 POP PUSH2 0x1133 DUP4 DUP6 DUP5 PUSH2 0x110B JUMP JUMPDEST DUP3 DUP5 ADD SWAP1 POP SWAP4 SWAP3 POP POP POP JUMP JUMPDEST PUSH1 0x0 PUSH2 0x114C DUP3 DUP5 DUP7 PUSH2 0x111A JUMP JUMPDEST SWAP2 POP DUP2 SWAP1 POP SWAP4 SWAP3 POP POP POP JUMP JUMPDEST PUSH1 0x0 DUP2 SWAP1 POP SWAP2 SWAP1 POP JUMP JUMPDEST PUSH2 0x116B DUP2 PUSH2 0x1158 JUMP JUMPDEST DUP3 MSTORE POP POP JUMP JUMPDEST PUSH1 0x0 PUSH1 0x20 DUP3 ADD SWAP1 POP PUSH2 0x1186 PUSH1 0x0 DUP4 ADD DUP5 PUSH2 0x1162 JUMP JUMPDEST SWAP3 SWAP2 POP POP JUMP JUMPDEST PUSH32 0x4E487B7100000000000000000000000000000000000000000000000000000000 PUSH1 0x0 MSTORE PUSH1 0x11 PUSH1 0x4 MSTORE PUSH1 0x24 PUSH1 0x0 REVERT JUMPDEST PUSH1 0x0 PUSH2 0x11C6 DUP3 PUSH2 0x9E9 JUMP JUMPDEST SWAP2 POP PUSH2 0x11D1 DUP4 PUSH2 0x9E9 JUMP JUMPDEST SWAP3 POP DUP3 DUP3 SUB SWAP1 POP DUP2 DUP2 GT ISZERO PUSH2 0x11E9 JUMPI PUSH2 0x11E8 PUSH2 0x118C JUMP JUMPDEST JUMPDEST SWAP3 SWAP2 POP POP JUMP JUMPDEST PUSH1 0x0 DUP2 SLOAD SWAP1 POP PUSH2 0x11FE DUP2 PUSH2 0xE53 JUMP JUMPDEST SWAP1 POP SWAP2 SWAP1 POP JUMP JUMPDEST DUP2 DUP2 SUB PUSH2 0x1213 JUMPI POP POP PUSH2 0x12EB JUMP JUMPDEST PUSH2 0x121C DUP3 PUSH2 0x11EF JUMP JUMPDEST PUSH8 0xFFFFFFFFFFFFFFFF DUP2 GT ISZERO PUSH2 0x1235 JUMPI PUSH2 0x1234 PUSH2 0xDF5 JUMP JUMPDEST JUMPDEST PUSH2 0x123F DUP3 SLOAD PUSH2 0xE53 JUMP JUMPDEST PUSH2 0x124A DUP3 DUP3 DUP6 PUSH2 0xFA3 JUMP JUMPDEST PUSH1 0x0 PUSH1 0x1F DUP4 GT PUSH1 0x1 DUP2 EQ PUSH2 0x1279 JUMPI PUSH1 0x0 DUP5 ISZERO PUSH2 0x1267 JUMPI DUP3 DUP8 ADD SLOAD SWAP1 POP JUMPDEST PUSH2 0x1271 DUP6 DUP3 PUSH2 0x1014 JUMP JUMPDEST DUP7 SSTORE POP PUSH2 0x12E4 JUMP JUMPDEST PUSH1 0x1F NOT DUP5 AND PUSH2 0x1287 DUP8 PUSH2 0xE84 JUMP JUMPDEST SWAP7 POP PUSH2 0x1292 DUP7 PUSH2 0xE84 JUMP JUMPDEST PUSH1 0x0 JUMPDEST DUP3 DUP2 LT ISZERO PUSH2 0x12BA JUMPI DUP5 DUP10 ADD SLOAD DUP3 SSTORE PUSH1 0x1 DUP3 ADD SWAP2 POP PUSH1 0x1 DUP6 ADD SWAP5 POP PUSH1 0x20 DUP2 ADD SWAP1 POP PUSH2 0x1295 JUMP JUMPDEST DUP7 DUP4 LT ISZERO PUSH2 0x12D7 JUMPI DUP5 DUP10 ADD SLOAD PUSH2 0x12D3 PUSH1 0x1F DUP10 AND DUP3 PUSH2 0xFF6 JUMP JUMPDEST DUP4 SSTORE POP JUMPDEST PUSH1 0x1 PUSH1 0x2 DUP9 MUL ADD DUP9 SSTORE POP POP POP JUMPDEST POP POP POP POP POP POP JUMPDEST JUMP JUMPDEST PUSH32 0x4E487B7100000000000000000000000000000000000000000000000000000000 PUSH1 0x0 MSTORE PUSH1 0x31 PUSH1 0x4 MSTORE PUSH1 0x24 PUSH1 0x0 REVERT JUMPDEST PUSH1 0x0 DUP2 SWAP1 POP SWAP3 SWAP2 POP POP JUMP JUMPDEST POP JUMP JUMPDEST PUSH1 0x0 PUSH2 0x1337 PUSH1 0x0 DUP4 PUSH2 0x131C JUMP JUMPDEST SWAP2 POP PUSH2 0x1342 DUP3 PUSH2 0x1327 JUMP JUMPDEST PUSH1 0x0 DUP3 ADD SWAP1 POP SWAP2 SWAP1 POP JUMP JUMPDEST PUSH1 0x0 PUSH2 0x1358 DUP3 PUSH2 0x132A JUMP JUMPDEST SWAP2 POP DUP2 SWAP1 POP SWAP2 SWAP1 POP JUMP JUMPDEST PUSH32 0x526566756E64206661696C656400000000000000000000000000000000000000 PUSH1 0x0 DUP3 ADD MSTORE POP JUMP JUMPDEST PUSH1 0x0 PUSH2 0x1398 PUSH1 0xD DUP4 PUSH2 0xB55 JUMP JUMPDEST SWAP2 POP PUSH2 0x13A3 DUP3 PUSH2 0x1362 JUMP JUMPDEST PUSH1 0x20 DUP3 ADD SWAP1 POP SWAP2 SWAP1 POP JUMP JUMPDEST PUSH1 0x0 PUSH1 0x20 DUP3 ADD SWAP1 POP DUP2 DUP2 SUB PUSH1 0x0 DUP4 ADD MSTORE PUSH2 0x13C7 DUP2 PUSH2 0x138B JUMP JUMPDEST SWAP1 POP SWAP2 SWAP1 POP JUMP JUMPDEST PUSH32 0x4D7573742073656E6420302E30312045544820746F2063726561746520612054 PUSH1 0x0 DUP3 ADD MSTORE PUSH32 0x6F646F0000000000000000000000000000000000000000000000000000000000 PUSH1 0x20 DUP3 ADD MSTORE POP JUMP JUMPDEST PUSH1 0x0 PUSH2 0x142A PUSH1 0x23 DUP4 PUSH2 0xB55 JUMP JUMPDEST SWAP2 POP PUSH2 0x1435 DUP3 PUSH2 0x13CE JUMP JUMPDEST PUSH1 0x40 DUP3 ADD SWAP1 POP SWAP2 SWAP1 POP JUMP JUMPDEST PUSH1 0x0 PUSH1 0x20 DUP3 ADD SWAP1 POP DUP2 DUP2 SUB PUSH1 0x0 DUP4 ADD MSTORE PUSH2 0x1459 DUP2 PUSH2 0x141D JUMP JUMPDEST SWAP1 POP SWAP2 SWAP1 POP JUMP JUMPDEST PUSH2 0x1469 DUP3 PUSH2 0xB4A JUMP JUMPDEST PUSH8 0xFFFFFFFFFFFFFFFF DUP2 GT ISZERO PUSH2 0x1482 JUMPI PUSH2 0x1481 PUSH2 0xDF5 JUMP JUMPDEST JUMPDEST PUSH2 0x148C DUP3 SLOAD PUSH2 0xE53 JUMP JUMPDEST PUSH2 0x1497 DUP3 DUP3 DUP6 PUSH2 0xFA3 JUMP JUMPDEST PUSH1 0x0 PUSH1 0x20 SWAP1 POP PUSH1 0x1F DUP4 GT PUSH1 0x1 DUP2 EQ PUSH2 0x14CA JUMPI PUSH1 0x0 DUP5 ISZERO PUSH2 0x14B8 JUMPI DUP3 DUP8 ADD MLOAD SWAP1 POP JUMPDEST PUSH2 0x14C2 DUP6 DUP3 PUSH2 0x1014 JUMP JUMPDEST DUP7 SSTORE POP PUSH2 0x152A JUMP JUMPDEST PUSH1 0x1F NOT DUP5 AND PUSH2 0x14D8 DUP7 PUSH2 0xE84 JUMP JUMPDEST PUSH1 0x0 JUMPDEST DUP3 DUP2 LT ISZERO PUSH2 0x1500 JUMPI DUP5 DUP10 ADD MLOAD DUP3 SSTORE PUSH1 0x1 DUP3 ADD SWAP2 POP PUSH1 0x20 DUP6 ADD SWAP5 POP PUSH1 0x20 DUP2 ADD SWAP1 POP PUSH2 0x14DB JUMP JUMPDEST DUP7 DUP4 LT ISZERO PUSH2 0x151D JUMPI DUP5 DUP10 ADD MLOAD PUSH2 0x1519 PUSH1 0x1F DUP10 AND DUP3 PUSH2 0xFF6 JUMP JUMPDEST DUP4 SSTORE POP JUMPDEST PUSH1 0x1 PUSH1 0x2 DUP9 MUL ADD DUP9 SSTORE POP POP POP JUMPDEST POP POP POP POP POP POP JUMP INVALID LOG2 PUSH5 0x6970667358 0x22 SLT KECCAK256 0xD0 EXTCODECOPY 0xAC SAR PUSH13 0xEBD22788EDDA93FB7A48D6BC2E 0xCD PUSH32 0x5842DDE73B472DE0226E040E64736F6C634300081C0033000000000000000000 "
        },
        "methodIdentifiers": {
          "FEE()": "c57981b5",
          "createTodo(string)": "e34f1221",
          "deleteTodo(uint256)": "6e3c6738",
          "getNumOfTodos()": "66f2be94",
          "owner()": "8da5cb5b",
          "renounceOwnership()": "715018a6",
          "todoList(uint256)": "58c2d469",
          "transferOwnership(address)": "f2fde38b",
          "updateTodo(uint256,uint8,string)": "09d9afea"
        }
      }
    }
  }
}