{
  "_format": "hh-sol-artifact-1",
  "contractName": "TodoList",
  "sourceName": "contracts/TodoList.sol",
  "abi": [
    {
      "inputs": [],
      "stateMutability": "nonpayable",
      "type": "constructor"
    },
    {
      "inputs": [
        {
          "internalType": "address",
          "name": "owner",
          "type": "address"
        }
      ],
      "name": "OwnableInvalidOwner",
      "type": "error"
    },
    {
      "inputs": [
        {
          "internalType": "address",
          "name": "account",
          "type": "address"
        }
      ],
      "name": "OwnableUnauthorizedAccount",
      "type": "error"
    },
    {
      "anonymous": false,
      "inputs": [
        {
          "indexed": false,
          "internalType": "bytes32",
          "name": "todo",
          "type": "bytes32"
        }
      ],
      "name": "CreateTodo",
      "type": "event"
    },
    {
      "anonymous": false,
      "inputs": [],
      "name": "DeleteTodo",
      "type": "event"
    },
    {
      "anonymous": false,
      "inputs": [
        {
          "indexed": true,
          "internalType": "address",
          "name": "previousOwner",
          "type": "address"
        },
        {
          "indexed": true,
          "internalType": "address",
          "name": "newOwner",
          "type": "address"
        }
      ],
      "name": "OwnershipTransferred",
      "type": "event"
    },
    {
      "anonymous": false,
      "inputs": [
        {
          "indexed": false,
          "internalType": "bytes32",
          "name": "todo",
          "type": "bytes32"
        }
      ],
      "name": "UpdateTodo",
      "type": "event"
    },
    {
      "inputs": [],
      "name": "FEE",
      "outputs": [
        {
          "internalType": "uint256",
          "name": "",
          "type": "uint256"
        }
      ],
      "stateMutability": "view",
      "type": "function"
    },
    {
      "inputs": [
        {
          "internalType": "string",
          "name": "todoDefinition",
          "type": "string"
        }
      ],
      "name": "createTodo",
      "outputs": [],
      "stateMutability": "payable",
      "type": "function"
    },
    {
      "inputs": [
        {
          "internalType": "uint256",
          "name": "index",
          "type": "uint256"
        }
      ],
      "name": "deleteTodo",
      "outputs": [],
      "stateMutability": "nonpayable",
      "type": "function"
    },
    {
      "inputs": [],
      "name": "getNumOfTodos",
      "outputs": [
        {
          "internalType": "uint256",
          "name": "",
          "type": "uint256"
        }
      ],
      "stateMutability": "view",
      "type": "function"
    },
    {
      "inputs": [],
      "name": "owner",
      "outputs": [
        {
          "internalType": "address",
          "name": "",
          "type": "address"
        }
      ],
      "stateMutability": "view",
      "type": "function"
    },
    {
      "inputs": [],
      "name": "renounceOwnership",
      "outputs": [],
      "stateMutability": "nonpayable",
      "type": "function"
    },
    {
      "inputs": [
        {
          "internalType": "uint256",
          "name": "",
          "type": "uint256"
        }
      ],
      "name": "todoList",
      "outputs": [
        {
          "internalType": "string",
          "name": "definition",
          "type": "string"
        },
        {
          "internalType": "enum TodoList.Status",
          "name": "status",
          "type": "uint8"
        },
        {
          "internalType": "uint256",
          "name": "createdAt",
          "type": "uint256"
        }
      ],
      "stateMutability": "view",
      "type": "function"
    },
    {
      "inputs": [
        {
          "internalType": "address",
          "name": "newOwner",
          "type": "address"
        }
      ],
      "name": "transferOwnership",
      "outputs": [],
      "stateMutability": "nonpayable",
      "type": "function"
    },
    {
      "inputs": [
        {
          "internalType": "uint256",
          "name": "index",
          "type": "uint256"
        },
        {
          "internalType": "enum TodoList.Status",
          "name": "status",
          "type": "uint8"
        },
        {
          "internalType": "string",
          "name": "todoDefinition",
          "type": "string"
        }
      ],
      "name": "updateTodo",
      "outputs": [],
      "stateMutability": "nonpayable",
      "type": "function"
    }
  ],
  "bytecode": "0x608060405234801561001057600080fd5b5033600073ffffffffffffffffffffffffffffffffffffffff168173ffffffffffffffffffffffffffffffffffffffff16036100845760006040517f1e4fbdf700000000000000000000000000000000000000000000000000000000815260040161007b919061019e565b60405180910390fd5b6100938161009960201b60201c565b506101b9565b60008060009054906101000a900473ffffffffffffffffffffffffffffffffffffffff169050816000806101000a81548173ffffffffffffffffffffffffffffffffffffffff021916908373ffffffffffffffffffffffffffffffffffffffff1602179055508173ffffffffffffffffffffffffffffffffffffffff168173ffffffffffffffffffffffffffffffffffffffff167f8be0079c531659141344cd1fd0a4f28419497f9722a3daafe3b4186f6b6457e060405160405180910390a35050565b600073ffffffffffffffffffffffffffffffffffffffff82169050919050565b60006101888261015d565b9050919050565b6101988161017d565b82525050565b60006020820190506101b3600083018461018f565b92915050565b611568806101c86000396000f3fe6080604052600436106100865760003560e01c8063715018a611610059578063715018a6146101475780638da5cb5b1461015e578063c57981b514610189578063e34f1221146101b4578063f2fde38b146101d057610086565b806309d9afea1461008b57806358c2d469146100b457806366f2be94146100f35780636e3c67381461011e575b600080fd5b34801561009757600080fd5b506100b260048036038101906100ad9190610aa9565b6101f9565b005b3480156100c057600080fd5b506100db60048036038101906100d69190610b1d565b6102e8565b6040516100ea93929190610c60565b60405180910390f35b3480156100ff57600080fd5b506101086103b7565b6040516101159190610c9e565b60405180910390f35b34801561012a57600080fd5b5061014560048036038101906101409190610b1d565b6103c4565b005b34801561015357600080fd5b5061015c6105b8565b005b34801561016a57600080fd5b506101736105cc565b6040516101809190610cfa565b60405180910390f35b34801561019557600080fd5b5061019e6105f5565b6040516101ab9190610c9e565b60405180910390f35b6101ce60048036038101906101c99190610d15565b610600565b005b3480156101dc57600080fd5b506101f760048036038101906101f29190610d8e565b6107a9565b005b61020161082f565b826001858154811061021657610215610dbb565b5b906000526020600020906003020160010160006101000a81548160ff0219169083600281111561024957610248610bda565b5b021790555081816001868154811061026457610263610dbb565b5b90600052602060002090600302016000019182610282929190611030565b507f0a89d447b03c57ef39d59d3dca3478ba51528310fc6b614140ad428e90498fd382826040516020016102b792919061113f565b604051602081830303815290604052805190602001206040516102da9190611171565b60405180910390a150505050565b600181815481106102f857600080fd5b906000526020600020906003020160009150905080600001805461031b90610e53565b80601f016020809104026020016040519081016040528092919081815260200182805461034790610e53565b80156103945780601f1061036957610100808354040283529160200191610394565b820191906000526020600020905b81548152906001019060200180831161037757829003601f168201915b5050505050908060010160009054906101000a900460ff16908060020154905083565b6000600180549050905090565b6103cc61082f565b60018080805490506103de91906111bb565b815481106103ef576103ee610dbb565b5b90600052602060002090600302016001828154811061041157610410610dbb565b5b9060005260206000209060030201600082018160000190816104339190611205565b506001820160009054906101000a900460ff168160010160006101000a81548160ff0219169083600281111561046c5761046b610bda565b5b02179055506002820154816002015590505060018054806104905761048f6112ed565b5b6001900381819060005260206000209060030201600080820160006104b59190610982565b6001820160006101000a81549060ff021916905560028201600090555050905560003373ffffffffffffffffffffffffffffffffffffffff16662386f26fc100006040516105029061134d565b60006040518083038185875af1925050503d806000811461053f576040519150601f19603f3d011682016040523d82523d6000602084013e610544565b606091505b5050905080610588576040517f08c379a000000000000000000000000000000000000000000000000000000000815260040161057f906113ae565b60405180910390fd5b7f67aa58abc396f7c2a8ea6ac09860dcde0d063a13f87aa70950229a0698ccf2de60405160405180910390a15050565b6105c061082f565b6105ca60006108b6565b565b60008060009054906101000a900473ffffffffffffffffffffffffffffffffffffffff16905090565b662386f26fc1000081565b61060861082f565b662386f26fc100003414610651576040517f08c379a000000000000000000000000000000000000000000000000000000000815260040161064890611440565b60405180910390fd5b6000604051806060016040528084848080601f016020809104026020016040519081016040528093929190818152602001838380828437600081840152601f19601f820116905080830192505050505050508152602001600060028111156106bc576106bb610bda565b5b8152602001428152509050600181908060018154018082558091505060019003906000526020600020906003020160009091909190915060008201518160000190816107089190611460565b5060208201518160010160006101000a81548160ff0219169083600281111561073457610733610bda565b5b02179055506040820151816002015550507fe5cbfb05332d78282dfc7fa4461c8bf821879aa086deef210c22ac365472a5ae838360405160200161077992919061113f565b6040516020818303038152906040528051906020012060405161079c9190611171565b60405180910390a1505050565b6107b161082f565b600073ffffffffffffffffffffffffffffffffffffffff168173ffffffffffffffffffffffffffffffffffffffff16036108235760006040517f1e4fbdf700000000000000000000000000000000000000000000000000000000815260040161081a9190610cfa565b60405180910390fd5b61082c816108b6565b50565b61083761097a565b73ffffffffffffffffffffffffffffffffffffffff166108556105cc565b73ffffffffffffffffffffffffffffffffffffffff16146108b45761087861097a565b6040517f118cdaa70000000000000000000000000000000000000000000000000000000081526004016108ab9190610cfa565b60405180910390fd5b565b60008060009054906101000a900473ffffffffffffffffffffffffffffffffffffffff169050816000806101000a81548173ffffffffffffffffffffffffffffffffffffffff021916908373ffffffffffffffffffffffffffffffffffffffff1602179055508173ffffffffffffffffffffffffffffffffffffffff168173ffffffffffffffffffffffffffffffffffffffff167f8be0079c531659141344cd1fd0a4f28419497f9722a3daafe3b4186f6b6457e060405160405180910390a35050565b600033905090565b50805461098e90610e53565b6000825580601f106109a057506109bf565b601f0160209004906000526020600020908101906109be91906109c2565b5b50565b5b808211156109db5760008160009055506001016109c3565b5090565b600080fd5b600080fd5b6000819050919050565b6109fc816109e9565b8114610a0757600080fd5b50565b600081359050610a19816109f3565b92915050565b60038110610a2c57600080fd5b50565b600081359050610a3e81610a1f565b92915050565b600080fd5b600080fd5b600080fd5b60008083601f840112610a6957610a68610a44565b5b8235905067ffffffffffffffff811115610a8657610a85610a49565b5b602083019150836001820283011115610aa257610aa1610a4e565b5b9250929050565b60008060008060608587031215610ac357610ac26109df565b5b6000610ad187828801610a0a565b9450506020610ae287828801610a2f565b935050604085013567ffffffffffffffff811115610b0357610b026109e4565b5b610b0f87828801610a53565b925092505092959194509250565b600060208284031215610b3357610b326109df565b5b6000610b4184828501610a0a565b91505092915050565b600081519050919050565b600082825260208201905092915050565b60005b83811015610b84578082015181840152602081019050610b69565b60008484015250505050565b6000601f19601f8301169050919050565b6000610bac82610b4a565b610bb68185610b55565b9350610bc6818560208601610b66565b610bcf81610b90565b840191505092915050565b7f4e487b7100000000000000000000000000000000000000000000000000000000600052602160045260246000fd5b60038110610c1a57610c19610bda565b5b50565b6000819050610c2b82610c09565b919050565b6000610c3b82610c1d565b9050919050565b610c4b81610c30565b82525050565b610c5a816109e9565b82525050565b60006060820190508181036000830152610c7a8186610ba1565b9050610c896020830185610c42565b610c966040830184610c51565b949350505050565b6000602082019050610cb36000830184610c51565b92915050565b600073ffffffffffffffffffffffffffffffffffffffff82169050919050565b6000610ce482610cb9565b9050919050565b610cf481610cd9565b82525050565b6000602082019050610d0f6000830184610ceb565b92915050565b60008060208385031215610d2c57610d2b6109df565b5b600083013567ffffffffffffffff811115610d4a57610d496109e4565b5b610d5685828601610a53565b92509250509250929050565b610d6b81610cd9565b8114610d7657600080fd5b50565b600081359050610d8881610d62565b92915050565b600060208284031215610da457610da36109df565b5b6000610db284828501610d79565b91505092915050565b7f4e487b7100000000000000000000000000000000000000000000000000000000600052603260045260246000fd5b600082905092915050565b7f4e487b7100000000000000000000000000000000000000000000000000000000600052604160045260246000fd5b7f4e487b7100000000000000000000000000000000000000000000000000000000600052602260045260246000fd5b60006002820490506001821680610e6b57607f821691505b602082108103610e7e57610e7d610e24565b5b50919050565b60008190508160005260206000209050919050565b60006020601f8301049050919050565b600082821b905092915050565b600060088302610ee67fffffffffffffffffffffffffffffffffffffffffffffffffffffffffffffffff82610ea9565b610ef08683610ea9565b95508019841693508086168417925050509392505050565b6000819050919050565b6000610f2d610f28610f23846109e9565b610f08565b6109e9565b9050919050565b6000819050919050565b610f4783610f12565b610f5b610f5382610f34565b848454610eb6565b825550505050565b600090565b610f70610f63565b610f7b818484610f3e565b505050565b5b81811015610f9f57610f94600082610f68565b600181019050610f81565b5050565b601f821115610fe457610fb581610e84565b610fbe84610e99565b81016020851015610fcd578190505b610fe1610fd985610e99565b830182610f80565b50505b505050565b600082821c905092915050565b600061100760001984600802610fe9565b1980831691505092915050565b60006110208383610ff6565b9150826002028217905092915050565b61103a8383610dea565b67ffffffffffffffff81111561105357611052610df5565b5b61105d8254610e53565b611068828285610fa3565b6000601f8311600181146110975760008415611085578287013590505b61108f8582611014565b8655506110f7565b601f1984166110a586610e84565b60005b828110156110cd578489013582556001820191506020850194506020810190506110a8565b868310156110ea57848901356110e6601f891682610ff6565b8355505b6001600288020188555050505b50505050505050565b600081905092915050565b82818337600083830152505050565b60006111268385611100565b935061113383858461110b565b82840190509392505050565b600061114c82848661111a565b91508190509392505050565b6000819050919050565b61116b81611158565b82525050565b60006020820190506111866000830184611162565b92915050565b7f4e487b7100000000000000000000000000000000000000000000000000000000600052601160045260246000fd5b60006111c6826109e9565b91506111d1836109e9565b92508282039050818111156111e9576111e861118c565b5b92915050565b6000815490506111fe81610e53565b9050919050565b8181036112135750506112eb565b61121c826111ef565b67ffffffffffffffff81111561123557611234610df5565b5b61123f8254610e53565b61124a828285610fa3565b6000601f8311600181146112795760008415611267578287015490505b6112718582611014565b8655506112e4565b601f19841661128787610e84565b965061129286610e84565b60005b828110156112ba57848901548255600182019150600185019450602081019050611295565b868310156112d757848901546112d3601f891682610ff6565b8355505b6001600288020188555050505b5050505050505b565b7f4e487b7100000000000000000000000000000000000000000000000000000000600052603160045260246000fd5b600081905092915050565b50565b600061133760008361131c565b915061134282611327565b600082019050919050565b60006113588261132a565b9150819050919050565b7f526566756e64206661696c656400000000000000000000000000000000000000600082015250565b6000611398600d83610b55565b91506113a382611362565b602082019050919050565b600060208201905081810360008301526113c78161138b565b9050919050565b7f4d7573742073656e6420302e30312045544820746f206372656174652061205460008201527f6f646f0000000000000000000000000000000000000000000000000000000000602082015250565b600061142a602383610b55565b9150611435826113ce565b604082019050919050565b600060208201905081810360008301526114598161141d565b9050919050565b61146982610b4a565b67ffffffffffffffff81111561148257611481610df5565b5b61148c8254610e53565b611497828285610fa3565b600060209050601f8311600181146114ca57600084156114b8578287015190505b6114c28582611014565b86555061152a565b601f1984166114d886610e84565b60005b82811015611500578489015182556001820191506020850194506020810190506114db565b8683101561151d5784890151611519601f891682610ff6565b8355505b6001600288020188555050505b50505050505056fea2646970667358221220d03cac1d6cebd22788edda93fb7a48d6bc2ecd7f5842dde73b472de0226e040e64736f6c634300081c0033",
  "linkReferences": {},
  "deployedLinkReferences": {}
}